:10810000CD1681CD3481CD4482CD7682CD8382CD92
:108110009082CDAF82C93E00D3B3D3B4212681066D
:108120000E0EBFEDB3C91011733137C5809100FF3A
:10813000C69044463E00D3B3D3B421448106000E1A
:10814000BEEDB3C9010001110101000110311100A0
:108150002301211010001210120110101111100132
:108160000001110101111000010110111000103166
:108170001001101001300122112113011000011112
:108180000101100110011001100110011001100176
:1081900010311001100113211022100110011001E3
:1081A0001001100101101001100110010110100147
:1081B00010011001112310211001300110021002D2
:1081C0001002100101100110011001100110011026
:1081D0000110017B0110011001A0A1A7011001A055
:1081E000AAAAAAAA0110011001100110014044140A
:1081F00001100110A4A45110011001105A55555539
:1082000051100110011001AAAAAA5A55011001AA81
:10821000AA5555550110011055555555011001101D
:108220000110051555555555551001105555555505
:108230005510011055555555011001100515011027
:1082400001100110010020CD5482E603D3BC0B784D
:10825000B120F4C9D5E521FFFF545D29292C19224D
:10826000578221FFFF299FE62DAD6F22638219ED12
:108270005FACADE1D1C90100203E00D3BD0B78B1A8
:1082800020F7C93E77D3B23EFED3B03EFED3B1C98C
:108290003E06D3B33E02D3B43E04D3BC3CD3BC3E73
:1082A00086D3B33E02D3B43E06D3BC3CD3BCC9CDC7
:1082B000000228FBCDD000CD5001CDF000CDB001A3
:0182C000C9F4
:00000001FF